{
  "_format": "hh-sol-artifact-1",
  "contractName": "DevicePassportRegistry",
  "sourceName": "contracts/DevicePassportRegistry.sol",
  "abi": [
    {
      "inputs": [
        {
          "internalType": "address",
          "name": "admin",
          "type": "address"
        }
      ],
      "stateMutability": "nonpayable",
      "type": "constructor"
    },
    {
      "inputs": [],
      "name": "AccessControlBadConfirmation",
      "type": "error"
    },
    {
      "inputs": [
        {
          "internalType": "address",
          "name": "account",
          "type": "address"
        },
        {
          "internalType": "bytes32",
          "name": "neededRole",
          "type": "bytes32"
        }
      ],
      "name": "AccessControlUnauthorizedAccount",
      "type": "error"
    },
    {
      "anonymous": false,
      "inputs": [
        {
          "indexed": true,
          "internalType": "uint256",
          "name": "reportId",
          "type": "uint256"
        },
        {
          "indexed": true,
          "internalType": "bytes32",
          "name": "deviceHash",
          "type": "bytes32"
        },
        {
          "indexed": true,
          "internalType": "address",
          "name": "serviceAddress",
          "type": "address"
        },
        {
          "indexed": false,
          "internalType": "bytes32",
          "name": "reportHash",
          "type": "bytes32"
        },
        {
          "indexed": false,
          "internalType": "enum DevicePassportRegistry.ReportStatus",
          "name": "status",
          "type": "uint8"
        },
        {
          "indexed": false,
          "internalType": "uint256",
          "name": "flags",
          "type": "uint256"
        },
        {
          "indexed": false,
          "internalType": "string",
          "name": "metadataURI",
          "type": "string"
        }
      ],
      "name": "ReportRegistered",
      "type": "event"
    },
    {
      "anonymous": false,
      "inputs": [
        {
          "indexed": true,
          "internalType": "bytes32",
          "name": "role",
          "type": "bytes32"
        },
        {
          "indexed": true,
          "internalType": "bytes32",
          "name": "previousAdminRole",
          "type": "bytes32"
        },
        {
          "indexed": true,
          "internalType": "bytes32",
          "name": "newAdminRole",
          "type": "bytes32"
        }
      ],
      "name": "RoleAdminChanged",
      "type": "event"
    },
    {
      "anonymous": false,
      "inputs": [
        {
          "indexed": true,
          "internalType": "bytes32",
          "name": "role",
          "type": "bytes32"
        },
        {
          "indexed": true,
          "internalType": "address",
          "name": "account",
          "type": "address"
        },
        {
          "indexed": true,
          "internalType": "address",
          "name": "sender",
          "type": "address"
        }
      ],
      "name": "RoleGranted",
      "type": "event"
    },
    {
      "anonymous": false,
      "inputs": [
        {
          "indexed": true,
          "internalType": "bytes32",
          "name": "role",
          "type": "bytes32"
        },
        {
          "indexed": true,
          "internalType": "address",
          "name": "account",
          "type": "address"
        },
        {
          "indexed": true,
          "internalType": "address",
          "name": "sender",
          "type": "address"
        }
      ],
      "name": "RoleRevoked",
      "type": "event"
    },
    {
      "anonymous": false,
      "inputs": [
        {
          "indexed": true,
          "internalType": "address",
          "name": "service",
          "type": "address"
        },
        {
          "indexed": true,
          "internalType": "address",
          "name": "admin",
          "type": "address"
        }
      ],
      "name": "ServiceAuthorized",
      "type": "event"
    },
    {
      "anonymous": false,
      "inputs": [
        {
          "indexed": true,
          "internalType": "address",
          "name": "service",
          "type": "address"
        },
        {
          "indexed": true,
          "internalType": "address",
          "name": "admin",
          "type": "address"
        }
      ],
      "name": "ServiceRevoked",
      "type": "event"
    },
    {
      "inputs": [],
      "name": "ADMIN_ROLE",
      "outputs": [
        {
          "internalType": "bytes32",
          "name": "",
          "type": "bytes32"
        }
      ],
      "stateMutability": "view",
      "type": "function"
    },
    {
      "inputs": [],
      "name": "DEFAULT_ADMIN_ROLE",
      "outputs": [
        {
          "internalType": "bytes32",
          "name": "",
          "type": "bytes32"
        }
      ],
      "stateMutability": "view",
      "type": "function"
    },
    {
      "inputs": [],
      "name": "SERVICE_ROLE",
      "outputs": [
        {
          "internalType": "bytes32",
          "name": "",
          "type": "bytes32"
        }
      ],
      "stateMutability": "view",
      "type": "function"
    },
    {
      "inputs": [
        {
          "internalType": "address",
          "name": "service",
          "type": "address"
        }
      ],
      "name": "authorizeService",
      "outputs": [],
      "stateMutability": "nonpayable",
      "type": "function"
    },
    {
      "inputs": [
        {
          "internalType": "bytes32",
          "name": "deviceHash",
          "type": "bytes32"
        }
      ],
      "name": "getReportCountByDevice",
      "outputs": [
        {
          "internalType": "uint256",
          "name": "",
          "type": "uint256"
        }
      ],
      "stateMutability": "view",
      "type": "function"
    },
    {
      "inputs": [
        {
          "internalType": "bytes32",
          "name": "deviceHash",
          "type": "bytes32"
        }
      ],
      "name": "getReportIdsByDevice",
      "outputs": [
        {
          "internalType": "uint256[]",
          "name": "",
          "type": "uint256[]"
        }
      ],
      "stateMutability": "view",
      "type": "function"
    },
    {
      "inputs": [
        {
          "internalType": "bytes32",
          "name": "role",
          "type": "bytes32"
        }
      ],
      "name": "getRoleAdmin",
      "outputs": [
        {
          "internalType": "bytes32",
          "name": "",
          "type": "bytes32"
        }
      ],
      "stateMutability": "view",
      "type": "function"
    },
    {
      "inputs": [
        {
          "internalType": "bytes32",
          "name": "role",
          "type": "bytes32"
        },
        {
          "internalType": "address",
          "name": "account",
          "type": "address"
        }
      ],
      "name": "grantRole",
      "outputs": [],
      "stateMutability": "nonpayable",
      "type": "function"
    },
    {
      "inputs": [
        {
          "internalType": "bytes32",
          "name": "role",
          "type": "bytes32"
        },
        {
          "internalType": "address",
          "name": "account",
          "type": "address"
        }
      ],
      "name": "hasRole",
      "outputs": [
        {
          "internalType": "bool",
          "name": "",
          "type": "bool"
        }
      ],
      "stateMutability": "view",
      "type": "function"
    },
    {
      "inputs": [
        {
          "internalType": "address",
          "name": "service",
          "type": "address"
        }
      ],
      "name": "isTrustedService",
      "outputs": [
        {
          "internalType": "bool",
          "name": "",
          "type": "bool"
        }
      ],
      "stateMutability": "view",
      "type": "function"
    },
    {
      "inputs": [],
      "name": "nextReportId",
      "outputs": [
        {
          "internalType": "uint256",
          "name": "",
          "type": "uint256"
        }
      ],
      "stateMutability": "view",
      "type": "function"
    },
    {
      "inputs": [
        {
          "internalType": "bytes32",
          "name": "deviceHash",
          "type": "bytes32"
        },
        {
          "internalType": "bytes32",
          "name": "reportHash",
          "type": "bytes32"
        },
        {
          "internalType": "enum DevicePassportRegistry.ReportStatus",
          "name": "status",
          "type": "uint8"
        },
        {
          "internalType": "uint256",
          "name": "flags",
          "type": "uint256"
        },
        {
          "internalType": "string",
          "name": "metadataURI",
          "type": "string"
        }
      ],
      "name": "registerReport",
      "outputs": [
        {
          "internalType": "uint256",
          "name": "",
          "type": "uint256"
        }
      ],
      "stateMutability": "nonpayable",
      "type": "function"
    },
    {
      "inputs": [
        {
          "internalType": "bytes32",
          "name": "role",
          "type": "bytes32"
        },
        {
          "internalType": "address",
          "name": "callerConfirmation",
          "type": "address"
        }
      ],
      "name": "renounceRole",
      "outputs": [],
      "stateMutability": "nonpayable",
      "type": "function"
    },
    {
      "inputs": [
        {
          "internalType": "uint256",
          "name": "",
          "type": "uint256"
        }
      ],
      "name": "reportsById",
      "outputs": [
        {
          "internalType": "uint256",
          "name": "reportId",
          "type": "uint256"
        },
        {
          "internalType": "bytes32",
          "name": "deviceHash",
          "type": "bytes32"
        },
        {
          "internalType": "bytes32",
          "name": "reportHash",
          "type": "bytes32"
        },
        {
          "internalType": "address",
          "name": "serviceAddress",
          "type": "address"
        },
        {
          "internalType": "uint64",
          "name": "timestamp",
          "type": "uint64"
        },
        {
          "internalType": "enum DevicePassportRegistry.ReportStatus",
          "name": "status",
          "type": "uint8"
        },
        {
          "internalType": "uint256",
          "name": "flags",
          "type": "uint256"
        },
        {
          "internalType": "string",
          "name": "metadataURI",
          "type": "string"
        },
        {
          "internalType": "bool",
          "name": "active",
          "type": "bool"
        }
      ],
      "stateMutability": "view",
      "type": "function"
    },
    {
      "inputs": [
        {
          "internalType": "bytes32",
          "name": "role",
          "type": "bytes32"
        },
        {
          "internalType": "address",
          "name": "account",
          "type": "address"
        }
      ],
      "name": "revokeRole",
      "outputs": [],
      "stateMutability": "nonpayable",
      "type": "function"
    },
    {
      "inputs": [
        {
          "internalType": "address",
          "name": "service",
          "type": "address"
        }
      ],
      "name": "revokeService",
      "outputs": [],
      "stateMutability": "nonpayable",
      "type": "function"
    },
    {
      "inputs": [
        {
          "internalType": "bytes4",
          "name": "interfaceId",
          "type": "bytes4"
        }
      ],
      "name": "supportsInterface",
      "outputs": [
        {
          "internalType": "bool",
          "name": "",
          "type": "bool"
        }
      ],
      "stateMutability": "view",
      "type": "function"
    }
  ],
  "bytecode": "0x6080604052600180553480156200001557600080fd5b5060405162001c0938038062001c0983398181016040528101906200003b91906200026a565b620000506000801b826200008b60201b60201c565b50620000837fa49807205ce4d355092ef5a8a18f56e8913cf4a201fbe287825b095693c21775826200008b60201b60201c565b50506200029c565b60006200009f83836200018e60201b60201c565b6200018357600160008085815260200190815260200160002060000160008473ffffffffffffffffffffffffffffffffffffffff1673ffffffffffffffffffffffffffffffffffffffff16815260200190815260200160002060006101000a81548160ff0219169083151502179055506200011f620001f860201b60201c565b73ffffffffffffffffffffffffffffffffffffffff168273ffffffffffffffffffffffffffffffffffffffff16847f2f8788117e7eff1d82e926ec794901d17c78024a50270940304540a733656f0d60405160405180910390a46001905062000188565b600090505b92915050565b600080600084815260200190815260200160002060000160008373ffffffffffffffffffffffffffffffffffffffff1673ffffffffffffffffffffffffffffffffffffffff16815260200190815260200160002060009054906101000a900460ff16905092915050565b600033905090565b600080fd5b600073ffffffffffffffffffffffffffffffffffffffff82169050919050565b6000620002328262000205565b9050919050565b620002448162000225565b81146200025057600080fd5b50565b600081519050620002648162000239565b92915050565b60006020828403121562000283576200028262000200565b5b6000620002938482850162000253565b91505092915050565b61195d80620002ac6000396000f3fe608060405234801561001057600080fd5b506004361061010b5760003560e01c806375b238fc116100a2578063b61c89c711610071578063b61c89c7146102d4578063d547741f14610304578063d9469a2a14610320578063dbada58014610350578063e93894c71461036c5761010b565b806375b238fc1461024a57806391d1485414610268578063a20e7d4714610298578063a217fddf146102b65761010b565b806329519505116100de57806329519505146101bc5780632f2ff15d146101f457806336568abe146102105780636e79bbf61461022c5761010b565b806301ffc9a7146101105780630a2495af146101405780631321179e1461015c578063248a9ca31461018c575b600080fd5b61012a60048036038101906101259190610ed7565b61039c565b6040516101379190610f1f565b60405180910390f35b61015a60048036038101906101559190610f98565b610416565b005b610176600480360381019061017191906110bb565b6104c8565b6040516101839190611164565b60405180910390f35b6101a660048036038101906101a1919061117f565b61078a565b6040516101b391906111bb565b60405180910390f35b6101d660048036038101906101d191906111d6565b6107a9565b6040516101eb9998979695949392919061133c565b60405180910390f35b61020e600480360381019061020991906113d0565b6108cd565b005b61022a600480360381019061022591906113d0565b6108ef565b005b61023461096a565b6040516102419190611164565b60405180910390f35b610252610970565b60405161025f91906111bb565b60405180910390f35b610282600480360381019061027d91906113d0565b610994565b60405161028f9190610f1f565b60405180910390f35b6102a06109fe565b6040516102ad91906111bb565b60405180910390f35b6102be610a22565b6040516102cb91906111bb565b60405180910390f35b6102ee60048036038101906102e9919061117f565b610a29565b6040516102fb9190611164565b60405180910390f35b61031e600480360381019061031991906113d0565b610a49565b005b61033a6004803603810190610335919061117f565b610a6b565b60405161034791906114ce565b60405180910390f35b61036a60048036038101906103659190610f98565b610ad6565b005b61038660048036038101906103819190610f98565b610b88565b6040516103939190610f1f565b60405180910390f35b60007f7965db0b000000000000000000000000000000000000000000000000000000007bffffffffffffffffffffffffffffffffffffffffffffffffffffffff1916827bffffffffffffffffffffffffffffffffffffffffffffffffffffffff1916148061040f575061040e82610bbb565b5b9050919050565b7fa49807205ce4d355092ef5a8a18f56e8913cf4a201fbe287825b095693c2177561044081610c25565b61046a7fd8a7a79547af723ee3e12b59a480111268d8969c634e1a34a144d2c8b91d635b836108cd565b3373ffffffffffffffffffffffffffffffffffffffff168273ffffffffffffffffffffffffffffffffffffffff167fd55545805102abb5c51b22f6fe673bcc062fe28019b389f55faab1d7d211225d60405160405180910390a35050565b60007fd8a7a79547af723ee3e12b59a480111268d8969c634e1a34a144d2c8b91d635b6104f481610c25565b6000600160008154809291906105099061151f565b91905055905060006040518061012001604052808381526020018b81526020018a81526020013373ffffffffffffffffffffffffffffffffffffffff1681526020014267ffffffffffffffff16815260200189600281111561056e5761056d611235565b5b815260200188815260200187878080601f016020809104026020016040519081016040528093929190818152602001838380828437600081840152601f19601f820116905080830192505050505050508152602001600115158152509050806002600084815260200190815260200160002060008201518160000155602082015181600101556040820151816002015560608201518160030160006101000a81548173ffffffffffffffffffffffffffffffffffffffff021916908373ffffffffffffffffffffffffffffffffffffffff16021790555060808201518160030160146101000a81548167ffffffffffffffff021916908367ffffffffffffffff16021790555060a082015181600301601c6101000a81548160ff0219169083600281111561069f5761069e611235565b5b021790555060c0820151816004015560e08201518160050190816106c391906117a2565b506101008201518160060160006101000a81548160ff021916908315150217905550905050600360008b81526020019081526020016000208290806001815401808255809150506001900390600052602060002001600090919091909150553373ffffffffffffffffffffffffffffffffffffffff168a837f05355d06ee9ae043a7a9488138ebb30acd757c61366dddad2bf6a832532b9f468c8c8c8c8c6040516107729594939291906118b0565b60405180910390a48193505050509695505050505050565b6000806000838152602001908152602001600020600101549050919050565b60026020528060005260406000206000915090508060000154908060010154908060020154908060030160009054906101000a900473ffffffffffffffffffffffffffffffffffffffff16908060030160149054906101000a900467ffffffffffffffff169080600301601c9054906101000a900460ff1690806004015490806005018054610837906115c5565b80601f0160208091040260200160405190810160405280929190818152602001828054610863906115c5565b80156108b05780601f10610885576101008083540402835291602001916108b0565b820191906000526020600020905b81548152906001019060200180831161089357829003601f168201915b5050505050908060060160009054906101000a900460ff16905089565b6108d68261078a565b6108df81610c25565b6108e98383610c39565b50505050565b6108f7610d2a565b73ffffffffffffffffffffffffffffffffffffffff168173ffffffffffffffffffffffffffffffffffffffff161461095b576040517f6697b23200000000000000000000000000000000000000000000000000000000815260040160405180910390fd5b6109658282610d32565b505050565b60015481565b7fa49807205ce4d355092ef5a8a18f56e8913cf4a201fbe287825b095693c2177581565b600080600084815260200190815260200160002060000160008373ffffffffffffffffffffffffffffffffffffffff1673ffffffffffffffffffffffffffffffffffffffff16815260200190815260200160002060009054906101000a900460ff16905092915050565b7fd8a7a79547af723ee3e12b59a480111268d8969c634e1a34a144d2c8b91d635b81565b6000801b81565b600060036000838152602001908152602001600020805490509050919050565b610a528261078a565b610a5b81610c25565b610a658383610d32565b50505050565b606060036000838152602001908152602001600020805480602002602001604051908101604052809291908181526020018280548015610aca57602002820191906000526020600020905b815481526020019060010190808311610ab6575b50505050509050919050565b7fa49807205ce4d355092ef5a8a18f56e8913cf4a201fbe287825b095693c21775610b0081610c25565b610b2a7fd8a7a79547af723ee3e12b59a480111268d8969c634e1a34a144d2c8b91d635b83610a49565b3373ffffffffffffffffffffffffffffffffffffffff168273ffffffffffffffffffffffffffffffffffffffff167fb716b0e84ad047c97c408b01bc285460ef598257f03d2b439687f89205df399760405160405180910390a35050565b6000610bb47fd8a7a79547af723ee3e12b59a480111268d8969c634e1a34a144d2c8b91d635b83610994565b9050919050565b60007f01ffc9a7000000000000000000000000000000000000000000000000000000007bffffffffffffffffffffffffffffffffffffffffffffffffffffffff1916827bffffffffffffffffffffffffffffffffffffffffffffffffffffffff1916149050919050565b610c3681610c31610d2a565b610e24565b50565b6000610c458383610994565b610d1f57600160008085815260200190815260200160002060000160008473ffffffffffffffffffffffffffffffffffffffff1673ffffffffffffffffffffffffffffffffffffffff16815260200190815260200160002060006101000a81548160ff021916908315150217905550610cbc610d2a565b73ffffffffffffffffffffffffffffffffffffffff168273ffffffffffffffffffffffffffffffffffffffff16847f2f8788117e7eff1d82e926ec794901d17c78024a50270940304540a733656f0d60405160405180910390a460019050610d24565b600090505b92915050565b600033905090565b6000610d3e8383610994565b15610e1957600080600085815260200190815260200160002060000160008473ffffffffffffffffffffffffffffffffffffffff1673ffffffffffffffffffffffffffffffffffffffff16815260200190815260200160002060006101000a81548160ff021916908315150217905550610db6610d2a565b73ffffffffffffffffffffffffffffffffffffffff168273ffffffffffffffffffffffffffffffffffffffff16847ff6391f5c32d9c69d2a47ea670b442974b53935d1edc7fd64eb21e047a839171b60405160405180910390a460019050610e1e565b600090505b92915050565b610e2e8282610994565b610e715780826040517fe2517d3f000000000000000000000000000000000000000000000000000000008152600401610e689291906118fe565b60405180910390fd5b5050565b600080fd5b600080fd5b60007fffffffff0000000000000000000000000000000000000000000000000000000082169050919050565b610eb481610e7f565b8114610ebf57600080fd5b50565b600081359050610ed181610eab565b92915050565b600060208284031215610eed57610eec610e75565b5b6000610efb84828501610ec2565b91505092915050565b60008115159050919050565b610f1981610f04565b82525050565b6000602082019050610f346000830184610f10565b92915050565b600073ffffffffffffffffffffffffffffffffffffffff82169050919050565b6000610f6582610f3a565b9050919050565b610f7581610f5a565b8114610f8057600080fd5b50565b600081359050610f9281610f6c565b92915050565b600060208284031215610fae57610fad610e75565b5b6000610fbc84828501610f83565b91505092915050565b6000819050919050565b610fd881610fc5565b8114610fe357600080fd5b50565b600081359050610ff581610fcf565b92915050565b6003811061100857600080fd5b50565b60008135905061101a81610ffb565b92915050565b6000819050919050565b61103381611020565b811461103e57600080fd5b50565b6000813590506110508161102a565b92915050565b600080fd5b600080fd5b600080fd5b60008083601f84011261107b5761107a611056565b5b8235905067ffffffffffffffff8111156110985761109761105b565b5b6020830191508360018202830111156110b4576110b3611060565b5b9250929050565b60008060008060008060a087890312156110d8576110d7610e75565b5b60006110e689828a01610fe6565b96505060206110f789828a01610fe6565b955050604061110889828a0161100b565b945050606061111989828a01611041565b935050608087013567ffffffffffffffff81111561113a57611139610e7a565b5b61114689828a01611065565b92509250509295509295509295565b61115e81611020565b82525050565b60006020820190506111796000830184611155565b92915050565b60006020828403121561119557611194610e75565b5b60006111a384828501610fe6565b91505092915050565b6111b581610fc5565b82525050565b60006020820190506111d060008301846111ac565b92915050565b6000602082840312156111ec576111eb610e75565b5b60006111fa84828501611041565b91505092915050565b61120c81610f5a565b82525050565b600067ffffffffffffffff82169050919050565b61122f81611212565b82525050565b7f4e487b7100000000000000000000000000000000000000000000000000000000600052602160045260246000fd5b6003811061127557611274611235565b5b50565b600081905061128682611264565b919050565b600061129682611278565b9050919050565b6112a68161128b565b82525050565b600081519050919050565b600082825260208201905092915050565b60005b838110156112e65780820151818401526020810190506112cb565b60008484015250505050565b6000601f19601f8301169050919050565b600061130e826112ac565b61131881856112b7565b93506113288185602086016112c8565b611331816112f2565b840191505092915050565b600061012082019050611352600083018c611155565b61135f602083018b6111ac565b61136c604083018a6111ac565b6113796060830189611203565b6113866080830188611226565b61139360a083018761129d565b6113a060c0830186611155565b81810360e08301526113b28185611303565b90506113c2610100830184610f10565b9a9950505050505050505050565b600080604083850312156113e7576113e6610e75565b5b60006113f585828601610fe6565b925050602061140685828601610f83565b9150509250929050565b600081519050919050565b600082825260208201905092915050565b6000819050602082019050919050565b61144581611020565b82525050565b6000611457838361143c565b60208301905092915050565b6000602082019050919050565b600061147b82611410565b611485818561141b565b93506114908361142c565b8060005b838110156114c15781516114a8888261144b565b97506114b383611463565b925050600181019050611494565b5085935050505092915050565b600060208201905081810360008301526114e88184611470565b905092915050565b7f4e487b7100000000000000000000000000000000000000000000000000000000600052601160045260246000fd5b600061152a82611020565b91507fffffffffffffffffffffffffffffffffffffffffffffffffffffffffffffffff820361155c5761155b6114f0565b5b600182019050919050565b7f4e487b7100000000000000000000000000000000000000000000000000000000600052604160045260246000fd5b7f4e487b7100000000000000000000000000000000000000000000000000000000600052602260045260246000fd5b600060028204905060018216806115dd57607f821691505b6020821081036115f0576115ef611596565b5b50919050565b60008190508160005260206000209050919050565b60006020601f8301049050919050565b600082821b905092915050565b6000600883026116587fffffffffffffffffffffffffffffffffffffffffffffffffffffffffffffffff8261161b565b611662868361161b565b95508019841693508086168417925050509392505050565b6000819050919050565b600061169f61169a61169584611020565b61167a565b611020565b9050919050565b6000819050919050565b6116b983611684565b6116cd6116c5826116a6565b848454611628565b825550505050565b600090565b6116e26116d5565b6116ed8184846116b0565b505050565b5b81811015611711576117066000826116da565b6001810190506116f3565b5050565b601f82111561175657611727816115f6565b6117308461160b565b8101602085101561173f578190505b61175361174b8561160b565b8301826116f2565b50505b505050565b600082821c905092915050565b60006117796000198460080261175b565b1980831691505092915050565b60006117928383611768565b9150826002028217905092915050565b6117ab826112ac565b67ffffffffffffffff8111156117c4576117c3611567565b5b6117ce82546115c5565b6117d9828285611715565b600060209050601f83116001811461180c57600084156117fa578287015190505b6118048582611786565b86555061186c565b601f19841661181a866115f6565b60005b828110156118425784890151825560018201915060208501945060208101905061181d565b8683101561185f578489015161185b601f891682611768565b8355505b6001600288020188555050505b505050505050565b82818337600083830152505050565b600061188f83856112b7565b935061189c838584611874565b6118a5836112f2565b840190509392505050565b60006080820190506118c560008301886111ac565b6118d2602083018761129d565b6118df6040830186611155565b81810360608301526118f2818486611883565b90509695505050505050565b60006040820190506119136000830185611203565b61192060208301846111ac565b939250505056fea264697066735822122095a8417e414d80b10e5cf1f98375fbdb05e009b61c330275f5cb4ffc7f0b93e564736f6c63430008180033",
  "linkReferences": {},
  "deployedLinkReferences": {}
}